:100000000C94070B0C94240B0C94240B0C94240BD1
:100010000C94240B0C94240B0C94240B0C94240BA4
:100020000C94240B0C94240B0C94240B0C94240B94
:100030000C94240B0C94240B0C94240B0C94240B84
:100040000C94240B0C94240B0C94240B0C94240B74
:100050000C94240B0C94240B0C94240B0C94240B64
:100060000C94240B0C94240B0C94240B0C94240B54
:100070000C94240B0C94240B0C94240B0C94240B44
:100080000C94240B0C94240B0C94240B0C94240B34
:100090000C94240B0C94240B0C94240B0C94240B24
:1000A0000C94240B0C94240B0C94240B0C94240B14
:1000B0000C94240B0C94240B0C94240B0C94240B04
:1000C0000C94240B0C94240B0C94240B3A00643AEB
:1000D00065BB083A09BB501052675177180405A157
:1000E000540155210700060C0B0350105100520417
:1000F000610F64556555180405A1FFFFFFFF3A0124
:100100002A042800290020002100220023002400C6
:1001100025002600270028012802218F280321001E
:10012000280428052806280728082809280A280B53
:10013000280C20802190280D20002100280E2081ED
:100140002191280F200021922810210028112193AD
:100150002812210028132814281520822816200090
:100160002817281828192194281A2195281B219628
:10017000281C2100281D2083281E2000281F2197CD
:100180002820210028212822282328242825282641
:10019000282728282829282A2084282B2000282CB2
:1001A000282D282E282F2830283128322085283342
:1001B000200028342835283628372198283821006F
:1001C0002839283A283B283C283D283E283F28400B
:1001D00028412842284328442845284628472848BB
:1001E0002849284A284B284C284D284E284F28506B
:1001F000285128522853285428552856285728581B
:100200002859285A285B285C285D285E285F2860CA
:1002100028612862219928632100286428652866BE
:10022000286728682869286A286B286C286D286E3A
:10023000286F2870287128722873287428752876EA
:10024000287728782879287A287B287C287D287E9A
:10025000287F28802881288228832884288528864A
:10026000288728882889288A288B288C288D288EFA
:10027000288F289028912086289220872893200074
:10028000289428952896289728982899289A289B72
:10029000289C289D289E289F219A28A0210028A1DB
:1002A00028A228A328A428A528A628A728A828A9E2
:1002B00028AA28AB28AC28AD28AE28AF28B028B192
:1002C00028B228B328B428B528B628B728B828B942
:1002D000208828BA200028BB208928BC200028BDFF
:1002E00028BE28BF28C028C128C228C3219B28C4F3
:1002F000210028C528C628C728C828C928CA28CB4D
:1003000028CC28CD28CE28CF28D028D128D228D331
:1003100028D428D528D628D728D828D928DA28DBE1
:1003200028DC28DD28DE28DF28E028E1208A28E2F2
:10033000208B28E3200028E428E528E628E728E8A1
:1003400028E928EA28EB28EC28ED28EE28EF28F009
:1003500028F128F228F328F428F528F628F728F8B9
:10036000208C28F92000219C28FA219D28FB208D33
:10037000219E28FC208E219F28FD2000210028FEA0
:1003800028FF2A012800220123952489250726A475
:100390002707280121C72200238026C4270C280212
:1003A0002009211C220426AA270A28032000210054
:1003B000220023A626A02707280428052005238439
:1003C00026B427092806200022032300248125C003
:1003D00026AB270A280721AE22002395248925076A
:1003E00026A42700280821482201238026C4270CA0
:1003F000280920092104220426AA270A280A200005
:100400002100220023A826A42707280B280C21401E
:100410002220238026C4270C280D222426C6280E3D
:10042000219E220026C8280F20092102221426AA74
:10043000270A2810200521002200238426B427093A
:100440002811200021012300240125C026AB270A02
:10045000281221C323952489250726202700281345
:10046000200321C223832626270D281421B3220826
:100470002815200021C622002395260027082816CB
:10048000210023002496250326AA270A28172042A4
:1004900021B62380248925072818200021002394D1
:1004A000260E2819200F238426B42709281A200095
:1004B000239326A82703281B26282700281C210170
:1004C0002300240125C026AB270A281D21C523951A
:1004D0002489250726202700281E21002394260092
:1004E000270A281F260E2820200321792201238392
:1004F0002626270D2821213228222000210422002F
:100500002380240025FC26AA270A28232100230073
:100510002500282421A3220D2380249E253B282565
:100520002042215722012489250728262000214323
:10053000220D240025382827210822982395248974
:1005400025072624270028282042219322012380E2
:1005500026AA270A28292003217E2204238326266F
:10056000270D282A200021B02200239526A0270746
:10057000282B21002300240C250426AA270A282C36
:1005800021022380248625C326AB282D20422197D3
:1005900022012489250726AA282E200021002200D6
:1005A000241F2504282F21B22395248925072620DE
:1005B000270428302042218B2204238026AA270AE0
:1005C0002831200021B12200239526A027072832B8
:1005D00020032175220423832626270D2833200596
:1005E00021002200238426B427092834200021601A
:1005F0002300240125C026AB270A2835210822988C
:1006000023952489250726242700283621BC22008B
:10061000283721A3220D2300240125C026AB270A59
:1006200028382160220023802400253826AA283972
:100630002106229823952489250726242700283A75
:1006400021BE2200283B20052100238426B427094F
:10065000283C200021602300240125C026AB270A66
:10066000283D21422201239524892507262427009D
:10067000283E210C229826A42707283F210828403D
:10068000216022002300240125C026AB270A28412F
:10069000210C229823952489250726242700284207
:1006A000200521002200238426B4270928432000A6
:1006B00023802400251026AB270A2844212222016A
:1006C0002395248925072624270028452100220078
:1006D00023002404251226AA270A2846200321D411
:1006E00022052383248925072626270D2847200055
:1006F000216022002300240125C026AB270A2848B8
:1007000021B323952489250726002708284921009D
:1007100023002409250026AA270A284A210223802B
:100720002486253B284B204221DD220524892507EC
:10073000284C200021002200241F2500284D21B331
:1007400023952489250726202700284E21002300F1
:100750002497250326AA270A284F204221E22205B2
:1007600023802489250728502000211022002300FF
:10077000248025CC26AB28512100224023B4248993
:10078000250726AA27042852220023B026922709EB
:100790002853211422012395260027082854214894
:1007A00023A4262A270028552100220023002409FB
:1007B000250026AA270A2856210823802486253BBF
:1007C0002857204221112207248925072858200074
:1007D00021002200241F25002859211422012395DD
:1007E0002489250726202700285A211626022709B2
:1007F000285B2100220023002480254826AA270AFE
:10080000285C23A02489250726142709285D248035
:10081000255026A42704285E211622012395248929
:1008200025072700285F210422002300249C257827
:1008300026AA270A28602143220D240125C426ABBD
:1008400028612103220024152862210024002500AC
:1008500026AA2863215E23952489250726102709C7
:10086000286421032300241525C426AB270A286504
:10087000210023802400250626AA2866248F25E34C
:1008800026AB2867204221CD22072489250726AAE6
:1008900028682000216022002300240125C026AB07
:1008A000286921002380248F250326AA286A204254
:1008B00021DD220724892507286B20002143220DF2
:1008C0002300240125C026AB286C2100220024002F
:1008D000250426AA286D2003217F22012383248951
:1008E00025072626270D286E2162286F2005210066
:1008F0002200238426B4270928702000210623958E
:10090000260027082871210123002497253B26AAC9
:10091000270A28722042210E2208238024892507D5
:1009200028732003213C220B23832626270D2874BD
:10093000200021032200239526022708287521275D
:100940002300248125C426AB270A28762100238092
:100950002409254826AA28772158223423A324894C
:100960002507262A270028782100220023A0260018
:1009700027092879210723802403253926AA270A55
:10098000287A21042300241C2538287B2107238072
:1009900024832539287C21032395248925072602D1
:1009A0002708287D21272300248125C426AB270A78
:1009B000287E210023802409254826AA287F215843
:1009C000223423A324892507262A270028802106EC
:1009D00022002300248125C026932701288121009D
:1009E00023802489254826AA270A288220022166F6
:1009F00022082300240025662883200021002200ED
:100A00002380241F2502288421062489250726DC2B
:100A1000270C2885210023AA26AA270A288623B680
:100A200026002708288723802486253B26AA270A14
:100A3000288821052489250726DC270C2889210000
:100A400023AA26AA270A288A23B626002708288B45
:100A500023802486253B26AA270A288C2042217B36
:100A6000220824892507288D200021002200230048
:100A700024012582288E2105248125C226AB288FBA
:100A80002003219322082383248925072626270D66
:100A900028902000210522002300248125C0261350
:100AA00027012891210023802489254826AA270A86
:100AB00028922002217E2208230024002566289304
:100AC0002000210022002380241F250228942105D4
:100AD0002489250726DC270C2895210023AA26AA8D
:100AE000270A289623B626002708289723802486DD
:100AF000253B26AA270A289821052489250726DCD4
:100B0000270C2899210023AA26AA270A289A23809D
:100B1000241F2502289B21012300248125C226AB06
:100B2000289C200321932208238324892507262635
:100B3000270D289D20002104220023952612270836
:100B4000289E216023C426AA2704289F210023C0B1
:100B50002600270928A0204221CB2208238026AA8C
:100B6000270A28A12070215422B82395261227088D
:100B700028A2200221CC2208238026AA270A28A303
:100B8000200321CA220F23832626270D28A4200014
:100B9000210022002300248C250C26AA270A28A540
:100BA00021042482257828A6210023802489254831
:100BB0002612270428A7200321DE220F23832507DE
:100BC0002626270D28A82000210122002300249C8E
:100BD000257826AA270A28A92100238024812540D8
:100BE00028AA200321CF220F238324892507262624
:100BF000270D28AB2070210822B8239526A02704B2
:100C000028AC200321D4220F23832626270D28ADCC
:100C10002127220B28AE2070216322B823952612AB
:100C2000270828AF2000210122002380248625CB1D
:100C300026AB270A28B0204221DD22082489250777
:100C400026AA28B1200021182280239526A4270057
:100C500028B2200321D9220F23832626270D28B36B
:100C60002070210A22B8239526A0270028B420024C
:100C700021E02208238026AA270A28B52070210A0D
:100C800022B8239526A0270028B62154260227083B
:100C900028B720002118228026A4270028B8210088
:100CA000220023802480254826AA270A28B92070FC
:100CB000215E22B82395248925072612270828BA01
:100CC00020002100220023802409254B26AA270A80
:100CD00028BB2070215F22B8239524892507261080
:100CE000270828BC2000210022002300241C258383
:100CF00026AB270A28BD2003213222092383248919
:100D000025072626270D28BE2000210022002300CB
:100D10002482258C26AB270A28BF200321252209FF
:100D20002383248925072626270D28C0204221BC9D
:100D3000238026AA270A28C120002101220023009F
:100D4000240125C026AB28C22070210F22B823958C
:100D5000248925072620270028C3200321E3220F0A
:100D600023832626270D28C4200521002200238462
:100D700026B4270928C52000210323952614270817
:100D800028C621A623A4262A270528C7210023A098
:100D90002644270928C82118226D2380249E257BFC
:100DA00026AA270A28C920422113220B24892507B5
:100DB00028CA200021AE220023952624270028CB14
:100DC0002100220323802487257B26AA270A28CCFA
:100DD00020422116220B2489250728CD200021AE90
:100DE000220023952624270028CE200521002384D5
:100DF00026B4270928CF2003210D220B2383262682
:100E0000270D28D020002100220023002480260264
:100E1000270028D1238024092548261E28D22158BE
:100E20002234233324802507262A28D321002200B8
:100E300023002680271028D421102363262A270088
:100E400028D52100236026A8271228D621AF224CBE
:100E5000230026C8270C28D721002200268027053A
:100E600028D823802486253B261E270028D9204207
:100E7000211C220E23002480250728DA200021359A
:100E8000222926C4270C28DB2002211D220E261E23
:100E9000270028DC2000217F223426C4270C28DDEF
:100EA000210022002390249F25042610270A28DEF3
:100EB0002300248425002680271028DF21062363B1
:100EC00024802507262A270028E021002380248962
:100ED00026AA270A28E12005238426B4270928E228
:100EE0002070216122B823952612270828E32000CC
:100EF000210122002380248625C326AB270A28E46B
:100F0000204221CE220F2489250726AA28E5207019
:100F1000215022B823952612270828E62005210013
:100F20002200238426B4270928E72070216422B8F0
:100F300023952612270828E820002101220023807B
:100F4000248625C326AB270A28E9204221D3220F75
:100F50002489250726AA28EA2070215122B8239542
:100F60002612270828EB200521002200238426B41E
:100F7000270928EC2070216522B82395261227081E
:100F800028ED2000210122002380248625C326ABE2
:100F9000270A28EE204221D8220F2489250726AAD5
:100FA00028EF2070215222B823952612270828F016
:100FB000200521002200238426B4270928F120706F
:100FC000216122B823952602270828F2200021015A
:100FD00022002380248625C326AB270A28F320423B
:100FE00021DD220F2489250726AA28F4207021500C
:100FF00022B823952602270828F520052100220083
:10100000238426B4270928F6200021012380248682
:1010100025CB26AB270A28F7204221E1220F24897D
:10102000250726AA28F82000210222002300248177
:1010300025C426AB28F9210023802489254826AA27
:1010400028FA20052384250726B4270928FB2070C9
:10105000214E22B823952610270828FC20002100C5
:1010600022002380248625C326AB270A28FD2042A0
:1010700021E7220F2489250726AA28FE200021BB6C
:10108000220023952620270028FF20052100238405
:1010900026B427092A081001FFFFFFFF52656C6183
:1010A0007469766520536563746F7273203D200008
:1010B000466972737444617461536563203D200016
:1010C00053746172746F66464154203D200046415E
:1010D0005433322044657465637465642E2E2E0A81
:1010E0000D0046415431362044657465637465646F
:1010F0002E2E2E0A0D004469736B204572726F729A
:10110000210A0D0052656C61746976652053656330
:10111000746F7273203D20004C6F636174696E6759
:1011200020426F6F7420536563746F722E2E2E0AE7
:101130000D005374616E6461726420436170616379
:101140006974790000486967682043617061636968
:101150007479000020204F4B210A0D0000534420D9
:10116000496E697469616C697A6174696F6E205047
:10117000726F6772616D0A0D00AED580A81FD30033
:10118000408D14A1C8DA02818FD9F1DB40A4A6AF4B
:10119000FF00000000000000000000000000000050
:1011A000000000000000000000000000000000003F
:1011B000000000000000000000000000000000002F
:1011C000000000000000000000000000000000001F
:1011D000000000000000000000000000000000000F
:1011E0000000FE7C388080387CFE000C14000C145B
:1011F000140C00140C88CCEECC882266EE662238E3
:101200007C7C7C382070A8203E0804FE0408204026
:10121000FE4020101054381010385410108088945C
:10122000A28080A294888040707C7040041C7C1C4A
:1012300004000000000000009E0000000E000E00F0
:1012400028FE28FE284852FE5222462610C8C46CAA
:1012500092AA44A0000A06000000384482000082DE
:1012600044380028107C102810107C101000A0308A
:101270000000101010101000C0C000004020100826
:10128000047CA2928A7C0084FE800084C2A2928C9C
:1012900042828A9662302824FE204E8A8A8A727898
:1012A000949292600602E2120E6C9292926C0C92F0
:1012B00092523C006C6C000000AC6C0000102844A2
:1012C0008200282828282800824428100402A2121C
:1012D0000C6492F2827CF8242224F8FE9292926CA2
:1012E0007C82828244FE82824438FE92929282FE06
:1012F000121212027C829292F4FE101010FE0082F2
:10130000FE82004080827E02FE10284482FE8080A1
:101310008080FE041804FEFE081020FE7C8282827B
:101320007CFE1212120C7C82A242BCFE1232528C43
:101330004C929292640202FE02027E8080807E3E87
:101340004080403E7E8070807EC6281028C60E10E9
:10135000E0100EC2A2928A8600FE8282000408106B
:101360002040008282FE0008040204088080808001
:1013700080000204080040A8A8A8F0FE90888870A9
:10138000708888884070888890FE70A8A8A830105F
:10139000FC12020410A8A8A878FE100808F000901B
:1013A000FA80004080887A00FE205088000082FE8B
:1013B0008000F808F008F0F8100808F070888888B5
:1013C00070F82828281010282830F8F8100808107D
:1013D00090A8A8A840087E88804078808040F8388F
:1013E000408040387880608078885020508818A0ED
:1013F000A0A07888C8A8988800106C82000000FE21
:10140000000000826C10002010102010426C6F63EE
:101410006B2073697A652073657420746F20353191
:10142000322062797465730A0D0048696768204349
:1014300061706163697479204361726420646574CA
:1014400065637465642E0A0D005374616E64617285
:101450006420436170616369747920436172642020
:1014600064657465637465642E0A0D005665727355
:10147000696F6E203220534420436172642064659A
:101480007465637465642E0A0D0056657273696F26
:101490006E2031205344204361726420646574657A
:1014A000637465642E0A0D00526573706F6E736508
:1014B000203D200041434D4434312073656E74203B
:1014C0002E2E2E2000434D4435382073656E742037
:1014D0002E2E2E2000434D4431362073656E74202D
:1014E0002E2E2E2000434D44382073656E74202E1E
:1014F0002E2E2000434D44302073656E74202E2E16
:101500002E20005344204361726420496E6974693F
:10151000616C697A6174696F6E202E2E2E200A0D1F
:1015200000436F6E66696775726174696F6E204300
:101530006F6D706C6574650A0D004F75747075740D
:101540002066726F6D205354413031333A2000537E
:10155000656E7420746F205354413031333A20004B
:101560004E756D626572206F662076616C7565736D
:10157000207772697474656E3A20005365636F6EEC
:101580006420636F6E66696775726174696F6E203F
:1015900066696C652073656E742E2E2E0A0D0046EA
:1015A0006972737420636F6E6669677572617469BE
:1015B0006F6E2066696C652073656E742E2E2E0A20
:1015C0000D004F75747075742066726F6D204944FC
:1015D0002072656769737465723A20006572726F74
:1015E0007220666C61673A200007100902B800009B
:1015F000000605A1000405070700015455060B521B
:101600005165645061050D180C46487D7200112427
:101610001FBECFEFD8E0DEBFCDBF12E0A0E0B1E04B
:10162000E8E4FBE402C005900D92AC31B107D9F7B4
:1016300026E0ACE1B2E001C01D92A338B207E1F7A9
:101640000E9481110C94A2250C9400008DE692E07A
:1016500008952F923F924F925F926F927F928F9256
:101660009F92AF92BF92CF92DF92EF92FF920F9331
:101670001F93CF93DF93CDB7DEB727970FB6F894BC
:10168000DEBF0FBECDBF4B015C015A8349830E9470
:10169000D2218C839D8380916E02823049F44090E8
:1016A0007F0250908002609081027090820205C09B
:1016B00040906D02512C612C712C4091710250911F
:1016C000720229813A81C501B4010E94EC16811190
:1016D000CDC07501640100E010E01F821E826981A7
:1016E0007A818E819F810E94890D382E25EE821786
:1016F00009F48AC0882309F487C069817A818E81C0
:101700009F810B960E94890D8B838E7009F07CC09F
:101710000F5F1F4F1F930F9380E091E09F938F9374
:101720008D818F939C819F930E94B8224C815D8113
:1017300060E088EC90E00E94FB210F900F900F90EA
:101740000F900F900F90212C0EC069817A818E81AD
:101750009F81820D911D0E94890D682F88EC90E079
:101760000E94C521239427E0221578F78B8184FD00
:1017700010C026C069817A818E819F81820D911D62
:101780000E94890D682F88EC90E00E94C521239467
:1017900003C06894222423F89AE0921558F788E051
:1017A000E6E0F1E0AC81BD8101900D928A95E1F710
:1017B0004C815D8160E088EC90E00E94FB2124C0B8
:1017C0006EE288EC90E00E94C5216894222423F800
:1017D0000EC069817A818E819F81820D911D0E9448
:1017E000890D682F88EC90E00E94C52123942AE09F
:1017F000221578F76DE088EC90E00E94C5216AE040
:1018000088EC90E00E94C5218E819F8180969F8305
:101810008E838F3F914038F18FEFC81AD80AE80ABB
:10182000F80AD701C60188199909AA09BB098415C4
:101830009505A605B70578F44091710250917202A2
:1018400029813A81C701B6010E94EC16811106C0B8
:101850001F821E8208C01068312C05C0312C00E0A8
:1018600010E01F821E8231103ACF02C000E010E06B
:10187000C80127960FB6F894DEBF0FBECDBFDF912B
:10188000CF911F910F91FF90EF90DF90CF90BF907D
:10189000AF909F908F907F906F905F904F903F9010
:1018A0002F9008952F923F924F925F926F927F9266
:1018B0008F929F92AF92BF92CF92DF92EF92FF9260
:1018C0001F93CF93DF93CDB7DEB72C970FB6F89465
:1018D000DEBF0FBECDBF6B017C015A87498719015E
:1018E00080916E02823049F480907F029090800255
:1018F000A0908102B090820206C080916D02882E75
:10190000912CA12CB12C4091710250917202910145
:10191000C701B6010E94EC168111C7C0260137012C
:1019200018861F8219821A821B821C8220E030E0F6
:101930003C872B87B1018B859C850E94890D182FD0
:10194000853E09F47CC0882309F479C04B855C8509
:10195000455F5F4F5E834D83B101CA010E94890DCF
:101960008E7009F06CC08F819885019698878F835F
:10197000A985BA858A179B0709F061C080916E021C
:10198000843031F5B1018B859C8545960E94890D87
:1019900090E0A0E0B0E02227382F492F5A2F29836A
:1019A0003A834B835C83B1018B859C8544960E946E
:1019B000890D29813A814B815C81282BDA01C9018B
:1019C0002227382F492F5A2F29833A834B835C8350
:1019D000B1018B859C854B960E94890D29813A81A6
:1019E0004B815C81282BDA01C9012227382F492F2E
:1019F0005A2F29833A834B835C83B1018B859C8565
:101A00004A960E94890D29813A814B815C81282B5D
:101A100029833A834B835C83B1018D819E810E942F
:101A2000890D84FF0BC089819A81AB81BC81B06133
:101A300089839A83AB83BC8310E001C010E0AB853F
:101A4000BC859096BC87AB87AF3FB14058F13FEF64
:101A5000431A530A630A730AD301C2018C199D0900
:101A6000AE09BF0988159905AA05BB0570F4409118
:101A70007102509172029101C301B2010E94EC16F1
:101A8000811105C01C861B860DC010E00BC010E044
:101A90001C861B8680E090E0A0E0B0E889839A83F2
:101AA000AB83BC83111146CF08C020E030E040E09A
:101AB00050E829833A834B835C8389819A81AB8187
:101AC000BC81892B8A2B8B2B41F420E030E040E055
:101AD00050E829833A834B835C8369817A818B81C7
:101AE0009C812C960FB6F894DEBF0FBECDBFDF9160
:101AF000CF911F91FF90EF90DF90CF90BF90AF906C
:101B00009F908F907F906F905F904F903F902F901D
:101B100008959170FB01E80FF91F8081089591707D
:101B2000FC013196E60FF71F208130E0322F22278B
:101B3000FB01E80FF91F8081A901482BCA01089514
:101B40009B01AC015170FA013396E60FF71F6081DB
:101B5000862F90E0A0E0B0E0BA2FA92F982F882719
:101B6000FA013296E20FF31FE0818E2BBA2FA92FD4
:101B7000982F8827FA013196E20FF31FE0818E2B10
:101B8000BA2FA92F982F8827F901E40FF51F20817C
:101B9000BC01CD01622B08952F923F924F925F922C
:101BA0006F927F928F929F92AF92BF92CF92DF926D
:101BB000EF92FF920F931F93CF93DF93CDB7DEB7D2
:101BC0002C970FB6F894DEBF0FBECDBF1C010E944C
:101BD000260B9C878B870E94D221082F192F482F14
:101BE000592F60E088E191E10E94D521402F512FCB
:101BF00060E088EC90E00E94FB21910140E052E01F
:101C000060E070E0CB010E94EC16B10180E090E052
:101C10000E94890D8B3E09F441C0893E09F443C0FE
:101C2000B10186EC91E00E94A00D69837A838B83D9
:101C30009C83910140E052E00E94EC16402F512F0E
:101C400060E084E091E10E94D521402F512F60E0B7
:101C500088EC90E00E94FB212C812F933B813F93E5
:101C60004A814F9359815F938AE391E09F938F93C9
:101C70001F930F930E94B822402F512F60E088ECF1
:101C800090E00E94FB21B10180E090E00E94890D6C
:101C90000FB6F894DEBF0FBECDBF09C019821A82FD
:101CA0001B821C8204C019821A821B821C828B3EFA
:101CB00091F0893E81F0402F512F60E086EF90E156
:101CC0000E94D521402F512F60E088EC90E00E94C7
:101CD000FB2180EFC4C1B1018BE090E00E948F0D29
:101CE0006C01EB85FC859583848312829C010AC07C
:101CF000AB85BC8512968C9112978F5F12968C9350
:101D0000369527952130310599F7B1018DE090E0A6
:101D10000E94890D8987AB85BC858C93B1018EE0CB
:101D200090E00E948F0D9E838D83B10180E190E051
:101D30000E94890D8A87B10181E190E00E948F0D98
:101D40007C01B10183E190E00E948F0D2C01612C98
:101D5000712C411451046104710439F4B10180E221
:101D600090E00E94A00D2B013C01B10186E190E0C2
:101D70000E948F0D4C01A12CB12C81149104A1045F
:101D8000B10439F4B10184E290E00E94A00D4B014E
:101D90005C01C701880F991F82959295907F9827C3
:101DA000807F98278C0D9D1D0197B6010E942C22E3
:101DB0006B01E12CF12CEB85FC85C28AD38AE48A85
:101DC000F58A4D815E819A0140E050E02D833E838B
:101DD0004F8358875A85A52FB0E0A50194010E9432
:101DE00062224B015C018D819E81AF81B885880D97
:101DF000991DAA1DBB1DC80ED91EEA1EFB1EC301DC
:101E0000B2016C197D098E099F09A9852A2F30E03E
:101E100040E050E00E94402229013A0189819A81E4
:101E2000AB81BC812D813E814F815885820F931FEC
:101E3000A41FB51FEB85FC8586879787A08BB18B88
:101E4000402F512F60E080EC90E10E94D521402F7F
:101E5000512F60E088EC90E00E94FB21AB85BC85AF
:101E600051968C9151978F9350968C9150978F9358
:101E70001F968C911F978F931E968C918F930F2E88
:101E8000FAE3EF2EF1E0FF2EF02DFF92EF921F9379
:101E90000F930E94B822402F512F60E088EC90E011
:101EA0000E94FB21EB85FC8586859785A089B189F9
:101EB000880D991DAA1DBB1D4289538964897589A6
:101EC000840F951FA61FB71F82879387A487B587A6
:101ED000402F512F60E080EB90E10E94D521402FF0
:101EE000512F60E088EC90E00E94FB21AB85BC851F
:101EF0001D968C911D978F931C968C911C978F9398
:101F00001B968C911B978F931A968C918F93FF92AF
:101F1000EF921F930F930E94B822402F512F60E041
:101F200088EC90E00E94FB210FB6F894DEBF0FBE54
:101F3000CDBFF5EF4F16FFEF5F066104710430F57A
:101F400082E0AB85BC8511968C93119781E0139646
:101F50008C93402F512F60E082EE90E10E94D521BA
:101F6000402F512F60E088EC90E00E94FB21EB8530
:101F7000FC8586859785A089B189880E991EAA1E41
:101F8000BB1E86829782A086B18635C084E0EB8531
:101F9000FC85818382E08383B1018CE290E00E9422
:101FA000A00D6B017C01402F512F60E08EEC90E181
:101FB0000E94D521402F512F60E088EC90E00E94D4
:101FC000FB21A70196012250310941095109EB85F6
:101FD000FC85A081B0E00E946222C284D384E484A4
:101FE000F584DC01CB018C0D9D1DAE1DBF1D8683CC
:101FF0009783A087B187402F512F60E08CE990E153
:102000000E94D521402F512F60E088EC90E00E9483
:10201000FB21AB85BC8519968C9119978F931896E7
:102020008C9118978F9317968C9117978F9316967C
:102030008C918F938AE391E09F938F931F930F93DB
:102040000E94B822402F512F60E088EC90E00E945F
:10205000FB210FB6F894DEBF0FBECDBF80E02C96FB
:102060000FB6F894DEBF0FBECDBFDF91CF911F91A9
:102070000F91FF90EF90DF90CF90BF90AF909F9027
:102080008F907F906F905F904F903F902F9008952A
:10209000CF92DF92EF92FF926B017C010E94260BA0
:1020A000FC01C114D104E104F10429F466817781B3
:1020B0008085918512C0A7019601225031094109FE
:1020C0005109A081B0E00E946222C284D384E484DA
:1020D000F5846C0D7D1D8E1D9F1DFF90EF90DF9090
:1020E000CF9008958F929F92AF92BF92CF92DF923E
:1020F000EF92FF920F931F93CF93DF936B017C01BD
:102100008A010E94260BEC018A812B8190E0821BC0
:102110009109B701A60104C0769567955795479533
:102120008A95D2F78E859F85A889B9894A015B0176
:10213000880E991EAA1EBB1EC501B4014C815D818B
:1021400098010E94EC160B8004C0CC0CDD1CEE1C28
:10215000FF1C0A94D2F78C819D810197C822D92255
:102160008981823071F4B801C6010E948F0DBC01D3
:1021700080E090E06F3F2FEF72078105910559F4E1
:1021800006C0B801C6010E94A00D9F7004C06FEF89
:102190007FEF8FEF9FE0DF91CF911F910F91FF9025
:1021A000EF90DF90CF90BF90AF909F908F90089569
:1021B000FC012181622B61830895FC012281622B45
:1021C00062830895FC01928160956923628308957A
:1021D0000E94D81008950E94DD1008950E94E21018
:1021E00008958F929F92AF92BF92EF92FF920F93BA
:1021F0001F93CF93DF93CDB7DEB72B970FB6F8942D
:10220000DEBF0FBECDBF7C0180E008C0E1E0F0E0A2
:10221000EC0FFD1FE80FF11D10828F5F8B30B0F3C4
:1022200088248A94982C540100E0C7010E94CC2194
:10223000182F80ED810F8A3068F4612FC7010E944A
:10224000C521E1E0F0E0EC0FFD1FE00FF11D108370
:102250000F5F2DC0183011F01F37A9F40150E1E0D5
:10226000F0E0EC0FFD1FE00FF11D108268E0C701E8
:102270000E94C52160E2C7010E94C52168E0C70134
:102280000E94C52114C01D3021F01A3011F01E32F9
:1022900071F4CE0101960E947C224B015C016DE03D
:1022A000C7010E94C5216AE0C7010E94C5210A300A
:1022B00071F4CE0101960E947C224B015C016DE01D
:1022C000C7010E94C5216AE0C7010E94C5218FEFA6
:1022D00088169806A806B80609F4A7CFC501B40168
:1022E0002B960FB6F894DEBF0FBECDBFDF91CF9116
:1022F0001F910F91FF90EF90BF90AF909F908F90A4
:10230000089560E886E290E00E94EB1060E886E2C3
:1023100090E00E94E81068E083E290E00E94EB10F9
:1023200068E083E290E00E94E81060E18CE290E0D7
:102330000E94EB1060E18CE290E00E94E81060E8FF
:1023400080E290E00E94EB1060E880E290E00E9462
:10235000E81060E875E288EC90E00E949B210E9402
:10236000D221C82FD92F482F592F60E08DE591E158
:102370000E94D5214C2F5D2F60E088EC90E00E94F8
:10238000FB2160E886E290E00E94EE102FEF31EE34
:1023900084E0215030408040E1F700C0000060E858
:1023A00086E290E00E94EB1040E85AE166E070E0BF
:1023B0008CE490E00E94781C8111FFCF8CE490E0C7
:1023C0000E9442148CE490E00E94BA124C2F5D2FC0
:1023D00060E08DE591E10E94D5214C2F5D2F67E0F3
:1023E0008CE490E00E94B0140E947D188111FFCF10
:1023F00040E856E968E970E08CE490E00E94781CBF
:102400004C2F5D2F60E084E591E10E94D5214C2F97
:102410005D2F65E08CE490E00E94B0148CE490E0C5
:102420000E94EF120E94751C893079F44C2F5D2FA9
:1024300060E082E391E10E94D5214C2F5D2F60E0A6
:102440008CE490E00E94B0140EC04C2F5D2F60E031
:1024500085E491E10E94D5214C2F5D2F60E08CE452
:1024600090E00E94B01460E886E290E00E94EB10D9
:1024700040E553EC60E070E088ED90E00E94AF1F13
:102480000E94191D8111FFCF83E892E00E94CC0DBC
:102490000E94260BFC01A680B780008511851F9342
:1024A0000F93BF92AF9287E691E09F938F93DF9354
:1024B000CF930E94B8224C2F5D2F60E088EC90E013
:1024C0000E94FB2143E852E06A2D7B2D802F912F43
:1024D0000E94290B6C01E12CF12C83E1E1E8F1E091
:1024E000AC2FBD2F01900D928A95E1F74C2F5D2FF7
:1024F00060E088EC90E00E94FB2188EC90E00E9474
:10250000F1102B013C01662477242DB73EB7285FDC
:102510003F4F0FB6F8943EBF0FBE2DBFC414D50475
:10252000E604F704B0F023E832E0AB016A2D7B2D1E
:10253000802F912F0E94520C94FF08C09F700E9420
:102540004810A62EB72E082F192FA9CF0E94E114EC
:10255000A6CF84E1E4E9F1E0AC2FBD2F01900D920C
:102560008A95E1F74C2F5D2F60E088EC90E00E94A7
:10257000FB2195CFCF93DF93EC0160E480E290E004
:102580000E94E21061E083E290E00E94E21060EBC2
:10259000CE010E94E91C61E083E290E00E94DD1020
:1025A00061E083E290E00E94E21060E0CE010E94D0
:1025B000E91C61E083E290E00E94DD1061E083E2CB
:1025C00090E00E94E21060E1CE010E94E91C61E00F
:1025D00083E290E00E94DD10DF91CF910895CF93C8
:1025E000DF93EC0160E480E290E00E94E21061E0A1
:1025F00083E290E00E94E21061EBCE010E94E91CB0
:1026000061E083E290E00E94DD1061E083E290E00F
:102610000E94E21060E0CE010E94E91C61E083E2CA
:1026200090E00E94DD1061E083E290E00E94E21001
:1026300060E1CE010E94E91C61E083E290E00E942B
:10264000DD10DF91CF910895CF93DF93EC0160E42B
:1026500080E290E00E94E21061E083E290E00E945C
:10266000E21062EBCE010E94E91C61E083E290E09F
:102670000E94DD1061E083E290E00E94E21060E0E1
:10268000CE010E94E91C61E083E290E00E94DD102F
:1026900061E083E290E00E94E21060E1CE010E94DE
:1026A000E91C61E083E290E00E94DD10DF91CF91B0
:1026B0000895CF93DF93EC0160E480E290E00E9404
:1026C000E21061E083E290E00E94E21063EBCE0151
:1026D0000E94E91C61E083E290E00E94DD1061E06D
:1026E00083E290E00E94E21060E0CE010E94E91CCB
:1026F00061E083E290E00E94DD1061E083E290E01F
:102700000E94E21060E1CE010E94E91C61E083E2D8
:1027100090E00E94DD10DF91CF910895FF920F931A
:102720001F93CF93DF938C01F62E60E480E290E05C
:102730000E94DD10D0E01DC08F2D90E0FC01EE0F57
:10274000FF1FEE0FFF1FE80FF91FED0FF11DEF56F2
:10275000FE4EC49161E083E290E00E94E2106C2F93
:10276000C8010E94E91C61E083E290E00E94DD1054
:10277000DF5FD53008F361E083E290E00E94E21071
:1027800060E0C8010E94E91C61E083E290E00E94E1
:10279000DD10DF91CF911F910F91FF9008951F934E
:1027A000CF93DF93EC010E94BA1260E480E290E0E4
:1027B0000E94DD1010E00FC061E083E290E00E9413
:1027C000E21060E0CE010E94E91C61E083E290E04B
:1027D0000E94DD101F5F11237CF7CE010E94EF12D3
:1027E00060E480E290E00E94DD1010E00FC061E044
:1027F00083E290E00E94E21060E0CE010E94E91CBA
:1028000061E083E290E00E94DD101F5F11237CF7FE
:10281000CE010E94241360E480E290E00E94DD106B
:1028200010E00FC061E083E290E00E94E21060E0FF
:10283000CE010E94E91C61E083E290E00E94DD107D
:102840001F5F11237CF7CE010E94591360E480E2E0
:1028500090E00E94DD1010E00FC061E083E290E0A4
:102860000E94E21060E0CE010E94E91C61E083E278
:1028700090E00E94DD101F5F11237CF7DF91CF9164
:102880001F910895EF92FF920F931F93CF937C01B6
:1028900060E889E290E00E94DD1060E889E290E063
:1028A0000E94D81060E480E290E00E94DD1060E4B5
:1028B00080E290E00E94D81061E083E290E00E9404
:1028C000DD1061E083E290E00E94D81060E889E2C8
:1028D00090E00E94E21080E090E001C00196843F09
:1028E00021E09207D8F360E889E290E00E94DD10D1
:1028F00060E480E290E00E94E210E9E7F1E1C49137
:1029000000E010E014C061E083E290E00E94E21079
:102910006C2FC7010E94E91C61E083E290E00E94F5
:10292000DD100F5F1F4FF801E758FE4EC491CF3FF7
:1029300051F761E083E290E00E94E21060E4C70199
:102940000E94E91C61E083E290E00E94DD10C70173
:102950000E94CF13CF911F910F91FF90EF90089598
:10296000EF92FF920F931F93CF93DF937C01062F7B
:10297000EA01611115C0688105C0C7010E948E136C
:10298000219668816111F9CF15C0FE01E10FF11D9B
:1029900017FDFA956081C7010E948E131F5F01C069
:1029A00010E0202F30E0812F012E000C990B8217B0
:1029B00093075CF3DF91CF911F910F91FF90EF9000
:1029C00008952F923F924F925F926F927F928F92D3
:1029D0009F92AF92BF92CF92DF92EF92FF920F93AE
:1029E0001F93CF93DF9300D000D0CDB7DEB72B017C
:1029F0003C010E94260B1C010E94D2218A839983EC
:102A000060E880E290E00E94EB1060E880E290E0F5
:102A10000E94E81068E083E290E00E94EB1068E01A
:102A200083E290E00E94E81060E886E290E00E9475
:102A3000EB1060E886E290E00E94E81060E18CE232
:102A400090E00E94EB1060E18CE290E00E94E810C0
:102A500060E489E290E00E94E21060E489E290E0A4
:102A60000E94D81060E486E290E00E94DF1660E4E5
:102A700086E290E00E94D9167F926F925F924F9209
:102A800088EA91E09F938F9329812F938A818F9376
:102A90000E94B8224A81598160E088EC90E00E944F
:102AA000FB21C301B2010E9448104B015C01BF929F
:102AB000AF929F926F9381EC91E09F938F93998156
:102AC0009F93EA81EF930E94B8224A81598160E086
:102AD00088EC90E00E94FB2168E083E290E00E9495
:102AE000EE1023E832E040E052E0C501B4010E945C
:102AF000EC1668E083E290E00E94EB1060E18CE26B
:102B000090E00E94EE10C501B4016F5F7F4F8F4FC0
:102B10009F4F23E834E040E052E00E94EC1660E171
:102B20008CE290E00E94EB100FB6F894DEBF0FBE6F
:102B3000CDBFC12CD12C76016894C1F81A8291E0E6
:102B4000998300E010E01C821B8260E486E290E042
:102B50000E94E416811142C060E489E290E00E9484
:102B6000DD10EB81FC81ED57FD4F60818CE490E03E
:102B70000E94E91C60E489E290E00E94E210EB818F
:102B8000FC813196FC83EB83E115F24008F455C0DB
:102B9000011582E0180708F449C060E18CE290E07A
:102BA0000E94EE10C501B4016C0D7D1D8E1D9F1D90
:102BB00023E834E040E052E00E94EC169FEFC91A8F
:102BC000D90AE90AF90A60E18CE290E00E94EB1070
:102BD000E1E0EA83198200E010E02FC00115F2E085
:102BE0001F07F0F060E18CE290E00E94EE10C5015A
:102BF000B4016C0D7D1D8E1D9F1D23E834E040E067
:102C000052E00E94EC162FEFC21AD20AE20AF20A30
:102C100060E18CE290E00E94EB1000E010E00DC05B
:102C20008B819C818115924028F407C0F1E0FA83E2
:102C3000198203C021E02A8319828981813009F435
:102C400084CF60E486E290E00E94E416811140C0E7
:102C500060E489E290E00E94DD10F801ED57FB4F3F
:102C600060818CE490E00E94E91C60E489E290E0DD
:102C70000E94E2100F5F1F4F011592E0190708F440
:102C800056C0EB81FC81E115F24008F449C068E0D0
:102C900083E290E00E94EE10C501B4016C0D7D1D31
:102CA0008E1D9F1D23E832E040E052E00E94EC16AA
:102CB0008FEFC81AD80AE80AF80A68E083E290E0C1
:102CC0000E94EB101A8291E099831C821B822FC014
:102CD000EB81FC81E115F240F0F068E083E290E0E6
:102CE0000E94EE10C501B4016C0D7D1D8E1D9F1D4F
:102CF00023E832E040E052E00E94EC168FEFC81A61
:102D0000D80AE80AF80A68E083E290E00E94EB1033
:102D10001C821B820CC0011592E0190728F407C021
:102D20001A82E1E0E98303C01A82F1E0F9832A8183
:102D3000213009F486CFF101808190E0A0E0B0E07D
:102D40008C159D05AE05BF05B0F443E852E0C30104
:102D5000B2010E9472102B013C010E9448104B01ED
:102D60005C01FFEF4F165F066F06FFE07F0651F034
:102D7000C12CD12C760120E8C216D104E104F10463
:102D800008F4E3CE0F900F900F900F90DF91CF914A
:102D90001F910F91FF90EF90DF90CF90BF90AF9079
:102DA0009F908F907F906F905F904F903F902F906B
:102DB0000895FC0191816095692361830895FC0168
:102DC0002281622B62830895FC018081682311F4C3
:102DD00080E0089581E00895AF92BF92CF92DF9294
:102DE000EF92FF920F931F93CF936B017C018A01A7
:102DF00059010E94751CC82F60E183E290E00E9497
:102E00002A17B701A60104C0440F551F661F771F7C
:102E1000CA95D2F781E10E943017C82F811105C0F1
:102E2000B501C8010E94ED17C82F60E183E290E070
:102E30000E942D17C111C0EF8C2FCF911F910F91C0
:102E4000FF90EF90DF90CF90BF90AF9008950E94D9
:102E5000D81008950E94E21008950E94DD10089590
:102E6000CF92DF92EF92FF92CF93DF93D82F6A0138
:102E70007B01803408F054C0682F60648CE490E0DB
:102E80000E94E91C81110AC06F2D77278827992796
:102E90008CE490E00E94E91CC0E001C0C7E8C111C9
:102EA0000BC081110BC0FF24B701882799278CE440
:102EB00090E00E94E91C03C0C7E801C0C7E8C11147
:102EC0000DC081110DC0EE24FF2499278F2D7E2D7A
:102ED0006D2D8CE490E00E94E91C03C0C7E801C09E
:102EE000C7E8C11108C0811108C06C2D8CE490E0C6
:102EF0000E94E91C03C0C7E801C0C7E8C11111C0A6
:102F000081110FC0DD2321F0D83021F467E803C020
:102F100065E901C061E08CE490E00E94E91C01C019
:102F2000C2E88C2FDF91CF91FF90EF90DF90CF9090
:102F30000895DF92EF92FF920F931F93CF93DF9349
:102F40001F92CDB7DEB7D82E7B0110E0BE016F5FB8
:102F50007F4F8CE490E00E94FC1C082F1F5F89814A
:102F6000882324F0982F9F709F3021F4112311F0B3
:102F7000002361F3011120C01123D9F0F7018083F0
:102F800089818230C0F4F1E0FD1578F015C0BE01F2
:102F90006F5F7F4F8CE490E00E94FC1CF701E10F13
:102FA000F11D898180831F5F01C011E01D1578F339
:102FB00003C001E801C003E8BE016F5F7F4F8CE4EE
:102FC00090E00E94FC1C802F0F90DF91CF911F9109
:102FD0000F91FF90EF90DF900895AF92BF92CF9244
:102FE000DF92FF920F931F93CF93DF931F92CDB782
:102FF000DEB76C015B0100E010E0BE016F5F7F4F48
:103000008CE490E00E94FC1CF82E0F5F1F4F89811A
:1030100088232CF40115110511F0FF2071F3F11034
:1030200059C0012B09F443C0811146C000E010E0F3
:10303000BE016F5F7F4F8CE490E00E94FC1C0F5F2D
:103040001F4F99819F3F29F40115110511F0882325
:1030500079F3811136C0012BC9F19E3FA1F00F2EEB
:10306000F4E8FF2EF02D36C0BE016F5F7F4F8CE479
:1030700090E00E94FC1CF501E00FF11F8981808324
:103080000F5F1F4F02C000E010E00C151D0560F33C
:10309000BE016F5F7F4F8CE490E00E94FC1CBE017C
:1030A0006F5F7F4F8CE490E00E94FC1C13C00F2EDA
:1030B000F1E8FF2EF02D0EC00F2EF3E8FF2EF02DBD
:1030C00009C00F2EF7E8FF2EF02D04C00F2EF1E8F7
:1030D000FF2EF02DBE016F5F7F4F8CE490E00E94C9
:1030E000FC1C8F2D0F90DF91CF911F910F91FF90BE
:1030F000DF90CF90BF90AF9008958F929F92AF9244
:10310000BF92CF92DF92EF92FF920F931F93CF93D4
:10311000DF93CDB7DEB729970FB6F894DEBF0FBEA9
:10312000CDBF0E94D221F82E092F8FEF80931C0271
:1031300060E886E290E00E94EB1060E886E290E0B2
:103140000E94E81060E880E290E00E94EB1060E8E6
:1031500080E290E00E94E81060E183E290E00E944B
:103160002D1760E183E290E00E9427174F2D502F2A
:1031700060E083E095E10E94D5214F2D502F60E063
:1031800088EC90E00E94FB214F2D502F60E084EFEF
:1031900094E10E94D5214F2D502F60E088EC90E003
:1031A0000E94FB21C12CD12C60E183E290E00E94BF
:1031B0002D1710E007C06FEF8CE490E00E94E91C2F
:1031C00089871F5F1A30B8F360E886E290E00E94BA
:1031D000EE1060E183E290E00E942A1740E050E0A8
:1031E000BA0180E00E943017182F811138C0BE014B
:1031F0006F5F7F4F81E00E949917182F60E183E293
:1032000090E00E942D1760E886E290E00E94EB10AB
:103210004F2D502F60E088EA94E10E94D5214F2D78
:10322000502F60E088EC90E00E94FB2189811F9282
:103230008F9389ED91E09F938F930F93FF920E945C
:10324000B8224F2D502F60E088EC90E00E94FB21C7
:103250000F900F900F900F900F900F900FC060E1A4
:1032600083E290E00E942D1760E886E290E00E94E1
:10327000EB1060E180E290E00E94EE1089818130E5
:1032800069F060E183E290E00E942A17BE01675F67
:103290007F4F8CE490E00E94FC1CF8CF9FEFC91A8E
:1032A000D90A813029F08AE0C816D10408F47CCF0D
:1032B0009AE0C916D10411F080E002C013E883E857
:1032C000111101C0182F1111BFC060E886E290E013
:1032D0000E94EE104F2D502F60E085EE94E10E9489
:1032E000D5214F2D502F60E088EC90E00E94FB210B
:1032F00060E183E290E00E942A174AEA51E060E030
:1033000070E088E00E943017E82E811151C0BE01A4
:103310006F5F7F4F85E00E949917E82E60E183E29E
:1033200090E00E942D1760E886E290E00E94EB108A
:103330004F2D502F60E088EA94E10E94D5214F2D57
:10334000502F60E088EC90E00E94FB21D12C1FC040
:10335000E1E0F0E0EC0FFD1FED0DF11D80811F920B
:103360008F9381EE91E09F938F930F93FF920E9432
:10337000B8224F2D502F60E088EC90E00E94FB2196
:10338000D3940F900F900F900F900F900F9084E0B8
:103390008D15F0F66DE088EC90E00E94C5216AE0A2
:1033A00088EC90E00E94C5218D818A3A89F414C08E
:1033B00060E183E290E00E942D1760E886E290E0F1
:1033C0000E94EB1060E880E290E00E94EE1004C0E2
:1033D0000F2EF3E8EF2EF02DEE2019F192E8E9120E
:1033E00032C089E080931C024F2D502F60E08AE8A4
:1033F00094E10E94D5214F2D502F60E088EC90E0A1
:103400000E94FB214F2D502F60E089E494E10E943F
:10341000D5214F2D502F60E088EC90E00E94FB21D9
:1034200013C082E080931C024F2D502F60E08CE689
:1034300094E10E94D5214F2D502F60E088EC90E060
:103440000E94FB2101C01E2D111189C060E886E297
:1034500090E00E94EE104F2D502F60E085EC94E13B
:103460000E94D5214F2D502F60E088EC90E00E9403
:10347000FB2160E183E290E00E942A1740E050E0E7
:10348000BA018AE30E943017E82E811152C0BE01B2
:103490006F5F7F4F85E00E949917E82E60E183E21D
:1034A00090E00E942D1760E886E290E00E94EB1009
:1034B0004F2D502F60E088EA94E10E94D5214F2DD6
:1034C000502F60E088EC90E00E94FB21D12C1FC0BF
:1034D000E1E0F0E0EC0FFD1FED0DF11D80811F928A
:1034E0008F9381EE91E09F938F930F93FF920E94B1
:1034F000B8224F2D502F60E088EC90E00E94FB2115
:10350000D3940F900F900F900F900F900F9084E036
:103510008D15F0F66DE088EC90E00E94C5216AE020
:1035200088EC90E00E94C5218B818C7F8C3F89F4D0
:1035300014C060E183E290E00E942D1760E886E20B
:1035400090E00E94EB1060E880E290E00E94EE10B4
:1035500004C00F2EF5E8EF2EF02DE1101E2D1111F5
:1035600094C080911C02823031F4812C912C540142
:103570006894B6F803C0812C912C540160E886E26F
:1035800090E00E94EE104F2D502F60E084EB94E10C
:103590000E94D5214F2D502F60E088EC90E00E94D2
:1035A000FB21C12CD12C60E183E290E00E942A171C
:1035B00040E050E0BA0187E30E943017E82E811105
:1035C00007C0BE016F5F7F4F81E00E949917E82E10
:1035D0008981823030F4B501A40189E20E9430175C
:1035E000E82EE11006C0BE016F5F7F4F81E00E94B0
:1035F000991760E183E290E00E942D179FEFC91AAE
:10360000D90A21F40F2EF1E8EF2EF02D898180FFE9
:1036100002C0EE2041F2E1102CC060E886E290E0AA
:103620000E94EB104F2D502F60E088EA94E10E9439
:10363000D5214F2D502F60E088EC90E00E94FB21B7
:1036400089811F928F938DEF91E09F938F930F93BA
:10365000FF920E94B8224F2D502F60E088EC90E03E
:103660000E94FB210F900F900F900F900F900F90E2
:103670000AC060E886E290E00E94EB1060E880E219
:1036800090E00E94EE10E1101E2D11111AC18091E0
:103690001C02823009F015C160E886E290E00E94C9
:1036A000EE104F2D502F60E085EC94E10E94D52163
:1036B0004F2D502F60E088EC90E00E94FB2160E1EC
:1036C00083E290E00E942A1740E050E0BA018AE3CA
:1036D0000E943017E82E8111DEC0BE016F5F7F4F60
:1036E00085E00E949917E82E60E183E290E00E9455
:1036F0002D1760E886E290E00E94EB104F2D502FCE
:1037000060E088EA94E10E94D5214F2D502F60E0BF
:1037100088EC90E00E94FB21D12C1FC0E1E0F0E09A
:10372000EC0FFD1FED0DF11D80811F928F9381EE37
:1037300091E09F938F930F93FF920E94B8224F2D99
:10374000502F60E088EC90E00E94FB21D3940F9012
:103750000F900F900F900F900F9084E08D15F0F662
:103760006DE088EC90E00E94C5216AE088EC90E072
:103770000E94C5218A8188230CF09DC0807C803CFA
:1037800089F410921C024F2D502F60E08AE294E1E0
:103790000E94D5214F2D502F60E088EC90E00E94D0
:1037A000FB218DC089E080931C024F2D502F60E0DB
:1037B00089E494E10E94D5214F2D502F60E088ECE0
:1037C00090E00E94FB2160E886E290E00E94EE100B
:1037D0004F2D502F60E085ED94E10E94D5214F2DB3
:1037E000502F60E088EC90E00E94FB2160E183E2D2
:1037F00090E00E942A1740E052E060E070E080E133
:103800000E943017E82E81115AC0BE016F5F7F4FB2
:1038100081E00E949917E82E60E183E290E00E9427
:103820002D1760E886E290E00E94EB104F2D502F9C
:1038300060E088EA94E10E94D5214F2D502F60E08E
:1038400088EC90E00E94FB2189811F928F938DEF7D
:1038500091E09F938F930F93FF920E94B8224F2D78
:10386000502F60E088EC90E00E94FB214F2D502FFC
:1038700060E08CE094E10E94D5214F2D502F60E054
:1038800088EC90E00E94FB210F900F900F900F901A
:103890000F900F9014C060E183E290E00E942D171A
:1038A00060E886E290E00E94EB1060E880E290E041
:1038B0000E94EE1004C00F2EF6E8EF2EF02DE1105E
:1038C0001E2D812F29960FB6F894DEBF0FBECDBFF7
:1038D000DF91CF911F910F91FF90EF90DF90CF90EC
:1038E000BF90AF909F908F90089580911C02089593
:1038F0001F93CF93DF93EC019A01AB0160E074E278
:1039000084EF90E00E944022223030F480E58883EA
:1039100081E0898310E036C0233029F480E5888374
:10392000198210E02FC08BEF820F833030F481E5D5
:10393000888381E0898310E025C087EF820F87307C
:1039400028F481E58883198210E01CC08FEE820F75
:103950008F3030F482E5888381E0898310E012C0E3
:103960008FED820F8F3128F482E58883198210E071
:1039700009C021542F3328F483E58883198210E08D
:1039800001C01FE0CC34D10559F460EA83E290E035
:103990000E94D81060E883E290E00E94E21014C018
:1039A000CC3AD10581F460E889E290E00E94D81019
:1039B00068E08CE290E00E94D81060E889E290E034
:1039C0000E94E21001C01EE0812FDF91CF911F9174
:1039D0000895FC01628390E021819F5F222314F00F
:1039E0009111FACF992321F026FD04C080E00895BB
:1039F00080E8089580EC0895FC018FEF828390E0C9
:103A000021819F5F222314F09111FACF992361F055
:103A100026FD05C08281FB01808380E008958FEF41
:103A2000FB01808380EC08958FEFFB01808380E8A9
:103A300008954F925F926F927F928F929F92AF9272
:103A4000BF92CF92DF92EF92FF920F931F93CF938B
:103A5000DF9300D000D01F92CDB7DEB762E083E2E3
:103A600090E00E94E21062E083E290E00E94D810B1
:103A70000E94D2215C0162E083E290E00E94DD10AE
:103A800012E39E012D5F3F4F69010F2EF3E0EF2EF1
:103A9000F02D00E021E030E040E050E063E488ED0C
:103AA00090E00E94DE20082F1150882311F01111A0
:103AB000E8CF112311F1A50160E082EC95E10E94AD
:103AC000D5212D8190E001971F922F932DEF31E0AA
:103AD0003F932F938A0D9B1D9F938F930E94B82233
:103AE000A50160E088EC90E00E94FB210F900F9010
:103AF0000F900F900F900F9020C0A50160E08CED0B
:103B000095E10E94D52190E001971F920F932DEF30
:103B100031E03F932F938A0D9B1D9F938F930E94BB
:103B2000B822A50160E088EC90E00E94FB210F9094
:103B30000F900F900F900F900F9012E3CE0103960D
:103B40006C01EE24E39401E021E030E040E050E03D
:103B500063E488ED90E00E94DE20082F1150882356
:103B600011F01111EBCF112311F1A50160E082ECEE
:103B700095E10E94D5212B8190E001971F922F9310
:103B80002DEF31E03F932F938A0D9B1D9F938F93D1
:103B90000E94B822A50160E088EC90E00E94FB2121
:103BA0000F900F900F900F900F900F9020C0A501D5
:103BB00060E08CED95E10E94D52190E001971F9285
:103BC0000F932DEF31E03F932F938A0D9B1D9F9311
:103BD0008F930E94B822A50160E088EC90E00E94DB
:103BE000FB210F900F900F900F900F900F9068E0B7
:103BF00083E290E00E94EE108B818C3A09F089C13B
:103C0000612C712C812C912CF401E250FF4F5490C7
:103C1000F401E150FF4FE491E98392E0890E911C99
:103C20002FEF5216B9F1EF3FA9F112E3852D90E085
:103C3000A0E0B0E09E012F5F3F4F6901EE24E394C6
:103C400001E09C01AD0163E488ED90E00E94DA1F81
:103C5000082F1150D9F460E886E290E00E94EE103F
:103C60001F920F9388EE91E09F938F93BF92AF9234
:103C70000E94B822A50160E088EC90E00E94FB2140
:103C80000F900F900F900F900F900F90002311F056
:103C90001111CCCF011105C0112319F03FEF631AA8
:103CA000730A8FEF581203C089818F3F11F01111F1
:103CB000ABCFA50160E08FE995E10E94D521A50178
:103CC00060E088EC90E00E94FB21A50160E080E6C6
:103CD00095E10E94D52190E001977F926F922DEEA1
:103CE00031E03F932F938A0D9B1D9F938F930E94EA
:103CF000B822A50160E088EC90E00E94FB2160E121
:103D00008CE290E00E94EE100F900F900F900F90B9
:103D10000F900F90612C712C812C912CF401E453A5
:103D2000FF4F5490F401E353FF4FE491E98392E095
:103D3000890E911C2FEF5216D9F0EF3FC9F012E314
:103D4000852D90E0A0E0B0E09E012F5F3F4F69011C
:103D5000EE24E39401E09C01AD0163E488ED90E082
:103D60000E94DA1F082F1150882311F01111E8CF9B
:103D7000011105C0112319F03FEF631A730A8FEF89
:103D8000581203C089818F3F29F0112319F00023B5
:103D900009F4C4CFA50160E08BE795E10E94D5212D
:103DA000A50160E088EC90E00E94FB21A50160E0A5
:103DB00080E695E10E94D52190E001977F926F9275
:103DC0002DEE31E03F932F938A0D9B1D9F938F9390
:103DD0000E94B822A50160E088EC90E00E94FB21DF
:103DE00060E880E290E00E94EE100F900F900F903C
:103DF0000F900F900F90812C912C7AC0F401E55018
:103E0000FA4EF490F401E751FA4EE491E98312E39B
:103E10004F2C512C612C712C9E012F5F3F4F69015B
:103E2000EE24E39401E0A301920163E488ED90E0C5
:103E30000E94DA1F082F115029F460E886E290E012
:103E40000E94EE10002311F01111E2CFA50160E0F5
:103E50008FE495E10E94D521298190E001971F927E
:103E60002F931F92FF9226EF31E03F932F938A0DFD
:103E70009B1D9F938F930E94B822A50160E088EC60
:103E800090E00E94FB21CE0103966C01EE24E394A6
:103E900001E0A301920163E488ED90E00E94DE203E
:103EA000082FA50160E08AE395E10E94D5212B81CE
:103EB00090E001971F920F931F922F931F92FF92F2
:103EC00026E032E03F932F938A0D9B1D9F938F93A3
:103ED0000E94B822A50160E088EC90E00E94FB21DE
:103EE0009FEF891A990A0FB6F894DEBF0FBECDBFB7
:103EF00032E18316910408F481CFA50160E081E2EC
:103F000095E10E94D521A50160E088EC90E00E9437
:103F1000FB2168E083E290E00E94EB1060E18CE21C
:103F200090E00E94EB1060E880E290E00E94EB10CD
:103F3000802F0F900F900F900F900F90DF91CF91E7
:103F40001F910F91FF90EF90DF90CF90BF90AF90B7
:103F50009F908F907F906F905F904F900895CF9338
:103F6000DF93EC019A01AB0160E074E284EF90E032
:103F70000E944022DA01C9014097A109B10920E05D
:103F800009C0B695A79597958795B695A7959795E6
:103F900087952F5F813031E09307A105B10588F740
:103FA000243020F42983888380E001C087E8DF91F2
:103FB000CF9108954F925F926F927F928F929F92CE
:103FC000AF92BF92CF92DF92EF920F93CF93DF9396
:103FD0001F92CDB7DEB7FC0149015A01660F84EA92
:103FE000848380E090E034810196332314F00097BD
:103FF000D1F7892B71F08181887F8983898188300D
:1040000019F08981803139F4638384E8848380E006
:1040100003C081E801C081E8002309F44EC081118A
:104020004CC034E0301B44C043E050E0431B510916
:10403000440F551F440F551F440F551F24013501D0
:1040400004C076946794579447944A95D2F7B30185
:10405000A2013F5F94819923ECF79181987F998326
:104060009981983121F4438394E8948321C0998104
:10407000983221F4438394E894831AC09981903252
:1040800039F484E98483848184FDFDCF82E810C003
:104090009981903339F484E98483848184FDFDCF50
:1040A00082E806C09981983319F484E8848381E812
:1040B000343018F4882309F4B7CF8823B1F16EC0E7
:1040C000D601A20FB11D3C912F5FEA9494819923F0
:1040D000ECF79181987F99839981983121F433830A
:1040E00094E8948323C09981983221F4338394E82F
:1040F00094831CC09981903239F484E9848384814B
:1041000084FDFDCF82E812C09981903339F484E9AF
:104110008483848184FDFDCF82E808C0998198332F
:1041200029F484E8848381E801C020E0EE2011F0C6
:10413000882331F2811132C094819923ECF7918167
:10414000987F99839981983131F494E9948394818B
:1041500094FDFDCF23C09981983231F494E9948382
:10416000948194FDFDCF1AC09981903239F484E98D
:104170008483848184FDFDCF82E810C099819033CF
:1041800039F484E98483848184FDFDCF82E806C00C
:104190009981983319F484E8848381E80F90DF9142
:1041A000CF910F91EF90DF90CF90BF90AF909F9005
:1041B0008F907F906F905F904F9008958F929F9215
:1041C000AF92BF92CF92DF92EF92FF920F931F9325
:1041D000CF93DF931F92CDB7DEB75C01F62E1E2D75
:1041E0004601002341F0CE0101966C01E12CC5018E
:1041F0000E94DA1F01C080E02F2D30E0220F331F14
:10420000422F4160498394EAD50114969C9320E0A3
:1042100030E0F50194812F5F3F4F99231CF0211569
:104220003105B9F7232B69F0D50111969C91987F40
:10423000983011F0903139F4F501438394E8948378
:1042400003C081E801C081E8811123C0D501149623
:104250009C9114979923D4F711969C911197987F6C
:10426000903451F4113021F494E814969C9311C0C9
:1042700094ECF50194830DC0983451F484E9D50190
:1042800014968C93F501848184FDFCCF82E801C0F3
:1042900081E88823E1F141C0D50114969C911497DF
:1042A0009923D4F711969C911197987F903599F4A2
:1042B0001150F401E20FF11D13969C911397908316
:1042C0002F5F113021F494E814969C9321C094EC54
:1042D000F50194831DC0983591F41150F401E20F5B
:1042E000F11DD50113969C91139790832F5F94E94C
:1042F00014969C93F501948194FDFCCF09C09833EA
:1043000039F484E8D50114968C9381E801C020E04B
:10431000112319F0882309F4BFCF0F90DF91CF91BB
:104320001F910F91FF90EF90DF90CF90BF90AF90D3
:104330009F908F900895CF93DF93EC01CB01A0E085
:10434000B0E0880F991FAA1FBB1F880F991FAA1FD3
:10435000BB1F9C01AD01220F331F441F551F220FAD
:10436000331F441F551F60E074E284EF90E00E9409
:104370004022215031093D832C83188286E08A83B4
:1043800088E18983DF91CF910895FC01908195FFA9
:10439000FDCF668380E00895FC0190819923ECF7BE
:1043A000868108958DE192E00895CF93DF93DC013B
:1043B00061111AC0262F30E0FD01E20FF31FE491D6
:1043C000EA01C20FD31FE8836F5FE111F3CF0FC083
:1043D000292F30E0FD01E20FF31FE491EA01C20F43
:1043E000D31FE8839F5F01C090E0961788F3862F64
:1043F000DF91CF910895EF92FF920F931F93CF9388
:10440000DF937C01062FEA01611115C0688105C0A8
:10441000C7010E94C521219668816111F9CF15C09D
:10442000FE01E10FF11D17FDFA956081C7010E94A1
:10443000C5211F5F01C010E0202F30E0812F012E29
:10444000000C990B821793075CF3DF91CF911F91BA
:104450000F91FF90EF900895AA1BBB1B51E107C07D
:10446000AA1FBB1FA617B70710F0A61BB70B881F04
:10447000991F5A95A9F780959095BC01CD01089593
:10448000A1E21A2EAA1BBB1BFD010DC0AA1FBB1F58
:10449000EE1FFF1FA217B307E407F50720F0A21BCA
:1044A000B30BE40BF50B661F771F881F991F1A9437
:1044B00069F760957095809590959B01AC01BD0161
:1044C000CF0108950E946D22A59F900DB49F900D7D
:1044D000A49F800D911D11240895A29FB001B39F48
:1044E000C001A39F700D811D1124911DB29F700DFD
:1044F000811D1124911D08951F93FC019927882780
:10450000BC01E89411911032E9F3193010F01E301B
:10451000C8F31B3251F01D3249F4689406C00E9462
:10452000A322610F711D811D911D119110531A302D
:10453000B0F33EF490958095709561957F4F8F4FC5
:104540009F4F1F910895592F482F372F262F660F01
:10455000771F881F991F660F771F881F991F620F8B
:10456000731F841F951F660F771F881F991F08955B
:10457000AEE0B0E0EEEBF2E20C9479250D891E89F5
:1045800086E08C831A8309838FEF9FE79E838D8358
:10459000AE01475E5F4F6F89788DCE0101960E9414
:1045A000DA22EF81F885E00FF11F10822E96E4E009
:1045B0000C949525ABE0B0E0E0EEF2E20C946B25B4
:1045C0006C017B018A01FC0117821682838181FFC5
:1045D000CCC1CE0101963C01F6019381F70193FD18
:1045E000859193FF81917F01882309F4BAC18532B7
:1045F00039F493FD859193FF81917F01853229F4F0
:10460000B60190E00E94D124E7CF912C212C312CCF
:10461000FFE1F315D8F08B3279F038F4803279F07D
:104620008332A1F4232D20611DC08D3261F08033CF
:1046300069F4232D216016C0832D8260382EE32D6E
:10464000E4603E2E2AC0F32DF8601DC037FC2DC05B
:1046500020ED280F2A3040F08E32B9F436FC81C1AB
:10466000232D2064322E19C036FE06C08AE0989EA3
:10467000200D1124922E11C0EAE02E9E200D11244F
:10468000222EF32DF0623F2E08C08C3621F4832DAC
:104690008068382E02C0883641F4F70193FD859179
:1046A00093FF81917F018111B3CF982F9F7D955406
:1046B000933028F40C5F1F4F9FE399830DC083361E
:1046C00031F0833771F0833509F059C021C0F8010A
:1046D000808189830E5F1F4F88248394912C53011E
:1046E00013C02801F2E04F0E511CF801A080B180E8
:1046F00036FE03C0692D70E002C06FEF7FEFC50189
:104700000E94C6244C018201F32DFF773F2E16C074
:10471000280122E0420E511CF801A080B18036FE33
:1047200003C0692D70E002C06FEF7FEFC5010E94EA
:10473000BB244C01F32DF0683F2E820133FC1BC0DB
:10474000822D90E088169906B0F4B60180E290E0E0
:104750000E94D1242A94F4CFF50137FC859137FECD
:1047600081915F01B60190E00E94D12421102A942A
:1047700021E0821A91088114910471F7E8C084360F
:1047800011F0893641F5F80137FE07C0608171816B
:10479000828193810C5F1F4F08C060817181072E59
:1047A000000C880B990B0E5F1F4FF32DFF763F2EE9
:1047B00097FF09C090958095709561957F4F8F4FB9
:1047C0009F4FF0683F2E2AE030E0A3010E940D25A4
:1047D000882E861845C0853731F4232D2F7EB22EC2
:1047E0002AE030E025C0932D997FB92E8F36C1F095
:1047F00018F4883579F0B5C0803719F0883721F082
:10480000B0C0E92FE061BE2EB4FE0DC0FB2DF460F8
:10481000BF2E09C034FE0AC0292F2660B22E06C062
:1048200028E030E005C020E130E002C020E132E0C5
:10483000F801B7FE07C060817181828193810C5FAE
:104840001F4F06C06081718180E090E00E5F1F4FB6
:10485000A3010E940D25882E8618FB2DFF773F2E81
:1048600036FE0DC0232D2E7FA22E891458F434FE5F
:104870000BC032FC09C0832D8E7EA82E05C0B82C3B
:10488000A32C03C0B82C01C0B92CA4FE0FC0FE019C
:10489000E80DF11D8081803321F49A2D997EA92E97
:1048A00009C0A2FE06C0B394B39404C08A2D8678D2
:1048B00009F0B394A3FC11C0A0FE06C0B21488F4A2
:1048C000280C922C9B180EC0B21460F4B60180E242
:1048D00090E00E94D124B394F7CFB21418F42B18AF
:1048E00002C0982C212CA4FE10C0B60180E390E0F9
:1048F0000E94D124A2FE17C0A1FC03C088E790E06B
:1049000002C088E590E0B6010CC08A2D867859F087
:10491000A1FE02C08BE201C080E2A7FC8DE2B601DD
:1049200090E00E94D124891438F4B60180E390E02D
:104930000E94D1249A94F7CF8A94F301E80DF11DD7
:104940008081B60190E00E94D1248110F5CF222011
:1049500009F442CEB60180E290E00E94D1242A946C
:10496000F6CFF6018681978102C08FEF9FEF2B96DD
:10497000E2E10C948725FC01059061507040011024
:10498000D8F7809590958E0F9F1F0895FC01615078
:10499000704001900110D8F7809590958E0F9F1F61
:1049A00008950F931F93CF93DF93FB01238121FD84
:1049B00003C08FEF9FEF2CC022FF16C046815781A6
:1049C000248135814217530744F4A081B1819D01B0
:1049D0002F5F3F4F318320838C93268137812F5F58
:1049E0003F4F3783268314C08B01EC01FB01008409
:1049F000F185E02D0995892BE1F6D80116968D9168
:104A00009C911797019617969C938E931697CE01BB
:104A1000DF91CF911F910F910895FA01AA272830B5
:104A200051F1203181F1E8946F936E7F6E5F7F4F7B
:104A30008F4F9F4FAF4FB1E03ED0B4E03CD0670FF7
:104A4000781F891F9A1FA11D680F791F8A1F911D4A
:104A5000A11D6A0F711D811D911DA11D20D009F49A
:104A600068943F912AE0269F11243019305D3193DC
:104A7000DEF6CF010895462F4770405D4193B3E0C5
:104A80000FD0C9F7F6CF462F4F70405D4A3318F06C
:104A9000495D31FD4052419302D0A9F7EACFB4E01D
:104AA000A6959795879577956795BA95C9F70097D5
:104AB0006105710508959B01AC010A2E0694579576
:104AC000479537952795BA95C9F7620F731F841FCD
:104AD000951FA01D08952F923F924F925F926F9263
:104AE0007F928F929F92AF92BF92CF92DF92EF927E
:104AF000FF920F931F93CF93DF93CDB7DEB7CA1BFF
:104B0000DB0B0FB6F894DEBF0FBECDBF09942A8829
:104B1000398848885F846E847D848C849B84AA84D1
:104B2000B984C884DF80EE80FD800C811B81AA815E
:104B3000B981CE0FD11D0FB6F894DEBF0FBECDBF29
:084B4000ED010895F894FFCF88
:104B48002535642E20005B4449525D0D0A00436CF4
:104B58007573746572233A2025396C752C2020539F
:104B68006563746F72233A2025396C752C202053A5
:104B780065634F66667365743A20256C750A0D0087
:104B8800507265737320537061636520746F20439E
:104B98006F6E74696E7565206F72205820746F206F
:104BA800657869740A0D0043757272656E742044E5
:104BB80069726563746F7279203D20256C750A0DE2
:104BC80000456E7465722053656C656374696F6E19
:104BD800203D2000496E76616C69642053656C65E0
:104BE8006374696F6E0A0D005374617274696E673D
:104BF80020436C7573746572203D20256C750A0D11
:104C0800005374617274696E6720536563746F72C0
:104C1800203D20256C750A0D0025322E32580A0DCC
:104C28000025322E3258200025750A0D0025322E17
:104C38003275200A0D0025322E3258202025322EBA
:104C48003258200A0D0025322E3258202025322EC7
:0C4C580032582025322E3258200A0D0060
:00000001FF
